{
  "address": "0xfb7505e1feed338df60b9fcc5714f1cd85f68b3f",
  "abi": [
    {
      "inputs": [
        {
          "internalType": "address",
          "name": "_marketing",
          "type": "address"
        },
        {
          "internalType": "address",
          "name": "solen",
          "type": "address"
        }
      ],
      "stateMutability": "nonpayable",
      "type": "constructor"
    },
    {
      "inputs": [
        {
          "internalType": "address",
          "name": "sender",
          "type": "address"
        },
        {
          "internalType": "uint256",
          "name": "tokenId",
          "type": "uint256"
        },
        {
          "internalType": "address",
          "name": "owner",
          "type": "address"
        }
      ],
      "name": "ERC721IncorrectOwner",
      "type": "error"
    },
    {
      "inputs": [
        {
          "internalType": "address",
          "name": "operator",
          "type": "address"
        },
        {
          "internalType": "uint256",
          "name": "tokenId",
          "type": "uint256"
        }
      ],
      "name": "ERC721InsufficientApproval",
      "type": "error"
    },
    {
      "inputs": [
        {
          "internalType": "address",
          "name": "approver",
          "type": "address"
        }
      ],
      "name": "ERC721InvalidApprover",
      "type": "error"
    },
    {
      "inputs": [
        {
          "internalType": "address",
          "name": "operator",
          "type": "address"
        }
      ],
      "name": "ERC721InvalidOperator",
      "type": "error"
    },
    {
      "inputs": [
        {
          "internalType": "address",
          "name": "owner",
          "type": "address"
        }
      ],
      "name": "ERC721InvalidOwner",
      "type": "error"
    },
    {
      "inputs": [
        {
          "internalType": "address",
          "name": "receiver",
          "type": "address"
        }
      ],
      "name": "ERC721InvalidReceiver",
      "type": "error"
    },
    {
      "inputs": [
        {
          "internalType": "address",
          "name": "sender",
          "type": "address"
        }
      ],
      "name": "ERC721InvalidSender",
      "type": "error"
    },
    {
      "inputs": [
        {
          "internalType": "uint256",
          "name": "tokenId",
          "type": "uint256"
        }
      ],
      "name": "ERC721NonexistentToken",
      "type": "error"
    },
    {
      "anonymous": false,
      "inputs": [
        {
          "indexed": true,
          "internalType": "address",
          "name": "owner",
          "type": "address"
        },
        {
          "indexed": true,
          "internalType": "address",
          "name": "approved",
          "type": "address"
        },
        {
          "indexed": true,
          "internalType": "uint256",
          "name": "tokenId",
          "type": "uint256"
        }
      ],
      "name": "Approval",
      "type": "event"
    },
    {
      "anonymous": false,
      "inputs": [
        {
          "indexed": true,
          "internalType": "address",
          "name": "owner",
          "type": "address"
        },
        {
          "indexed": true,
          "internalType": "address",
          "name": "operator",
          "type": "address"
        },
        {
          "indexed": false,
          "internalType": "bool",
          "name": "approved",
          "type": "bool"
        }
      ],
      "name": "ApprovalForAll",
      "type": "event"
    },
    {
      "anonymous": false,
      "inputs": [
        {
          "indexed": false,
          "internalType": "uint256",
          "name": "_fromTokenId",
          "type": "uint256"
        },
        {
          "indexed": false,
          "internalType": "uint256",
          "name": "_toTokenId",
          "type": "uint256"
        }
      ],
      "name": "BatchMetadataUpdate",
      "type": "event"
    },
    {
      "anonymous": false,
      "inputs": [
        {
          "indexed": false,
          "internalType": "uint256",
          "name": "_tokenId",
          "type": "uint256"
        }
      ],
      "name": "MetadataUpdate",
      "type": "event"
    },
    {
      "anonymous": false,
      "inputs": [
        {
          "indexed": true,
          "internalType": "address",
          "name": "from",
          "type": "address"
        },
        {
          "indexed": true,
          "internalType": "address",
          "name": "to",
          "type": "address"
        },
        {
          "indexed": true,
          "internalType": "uint256",
          "name": "tokenId",
          "type": "uint256"
        }
      ],
      "name": "Transfer",
      "type": "event"
    },
    {
      "inputs": [
        {
          "internalType": "address",
          "name": "to",
          "type": "address"
        },
        {
          "internalType": "uint256",
          "name": "tokenId",
          "type": "uint256"
        }
      ],
      "name": "approve",
      "outputs": [],
      "stateMutability": "nonpayable",
      "type": "function"
    },
    {
      "inputs": [],
      "name": "bPintOpen",
      "outputs": [
        {
          "internalType": "bool",
          "name": "",
          "type": "bool"
        }
      ],
      "stateMutability": "view",
      "type": "function"
    },
    {
      "inputs": [],
      "name": "bRevealed",
      "outputs": [
        {
          "internalType": "bool",
          "name": "",
          "type": "bool"
        }
      ],
      "stateMutability": "view",
      "type": "function"
    },
    {
      "inputs": [
        {
          "internalType": "address",
          "name": "owner",
          "type": "address"
        }
      ],
      "name": "balanceOf",
      "outputs": [
        {
          "internalType": "uint256",
          "name": "",
          "type": "uint256"
        }
      ],
      "stateMutability": "view",
      "type": "function"
    },
    {
      "inputs": [],
      "name": "closeMint",
      "outputs": [],
      "stateMutability": "nonpayable",
      "type": "function"
    },
    {
      "inputs": [
        {
          "internalType": "address",
          "name": "minter",
          "type": "address"
        }
      ],
      "name": "eligable",
      "outputs": [
        {
          "internalType": "uint256",
          "name": "",
          "type": "uint256"
        }
      ],
      "stateMutability": "view",
      "type": "function"
    },
    {
      "inputs": [
        {
          "internalType": "uint256",
          "name": "tokenId",
          "type": "uint256"
        }
      ],
      "name": "getApproved",
      "outputs": [
        {
          "internalType": "address",
          "name": "",
          "type": "address"
        }
      ],
      "stateMutability": "view",
      "type": "function"
    },
    {
      "inputs": [],
      "name": "iCyborgCount",
      "outputs": [
        {
          "internalType": "uint256",
          "name": "",
          "type": "uint256"
        }
      ],
      "stateMutability": "view",
      "type": "function"
    },
    {
      "inputs": [],
      "name": "iLegendaryCount",
      "outputs": [
        {
          "internalType": "uint256",
          "name": "",
          "type": "uint256"
        }
      ],
      "stateMutability": "view",
      "type": "function"
    },
    {
      "inputs": [],
      "name": "iMechanicalCount",
      "outputs": [
        {
          "internalType": "uint256",
          "name": "",
          "type": "uint256"
        }
      ],
      "stateMutability": "view",
      "type": "function"
    },
    {
      "inputs": [],
      "name": "iOrganicCount",
      "outputs": [
        {
          "internalType": "uint256",
          "name": "",
          "type": "uint256"
        }
      ],
      "stateMutability": "view",
      "type": "function"
    },
    {
      "inputs": [
        {
          "internalType": "address",
          "name": "owner",
          "type": "address"
        },
        {
          "internalType": "address",
          "name": "operator",
          "type": "address"
        }
      ],
      "name": "isApprovedForAll",
      "outputs": [
        {
          "internalType": "bool",
          "name": "",
          "type": "bool"
        }
      ],
      "stateMutability": "view",
      "type": "function"
    },
    {
      "inputs": [
        {
          "internalType": "address",
          "name": "",
          "type": "address"
        }
      ],
      "name": "mapClaimedAirdrop",
      "outputs": [
        {
          "internalType": "bool",
          "name": "",
          "type": "bool"
        }
      ],
      "stateMutability": "view",
      "type": "function"
    },
    {
      "inputs": [
        {
          "internalType": "uint256",
          "name": "",
          "type": "uint256"
        }
      ],
      "name": "mapIDToType",
      "outputs": [
        {
          "internalType": "uint256",
          "name": "",
          "type": "uint256"
        }
      ],
      "stateMutability": "view",
      "type": "function"
    },
    {
      "inputs": [
        {
          "internalType": "uint256",
          "name": "_type",
          "type": "uint256"
        }
      ],
      "name": "mint",
      "outputs": [
        {
          "internalType": "uint256",
          "name": "",
          "type": "uint256"
        }
      ],
      "stateMutability": "payable",
      "type": "function"
    },
    {
      "inputs": [],
      "name": "mintFee",
      "outputs": [
        {
          "internalType": "uint256",
          "name": "",
          "type": "uint256"
        }
      ],
      "stateMutability": "view",
      "type": "function"
    },
    {
      "inputs": [],
      "name": "name",
      "outputs": [
        {
          "internalType": "string",
          "name": "",
          "type": "string"
        }
      ],
      "stateMutability": "view",
      "type": "function"
    },
    {
      "inputs": [
        {
          "internalType": "uint256",
          "name": "tokenId",
          "type": "uint256"
        }
      ],
      "name": "ownerOf",
      "outputs": [
        {
          "internalType": "address",
          "name": "",
          "type": "address"
        }
      ],
      "stateMutability": "view",
      "type": "function"
    },
    {
      "inputs": [
        {
          "internalType": "string",
          "name": "_newBaseURI",
          "type": "string"
        }
      ],
      "name": "revealDragons",
      "outputs": [],
      "stateMutability": "nonpayable",
      "type": "function"
    },
    {
      "inputs": [
        {
          "internalType": "address",
          "name": "from",
          "type": "address"
        },
        {
          "internalType": "address",
          "name": "to",
          "type": "address"
        },
        {
          "internalType": "uint256",
          "name": "tokenId",
          "type": "uint256"
        }
      ],
      "name": "safeTransferFrom",
      "outputs": [],
      "stateMutability": "nonpayable",
      "type": "function"
    },
    {
      "inputs": [
        {
          "internalType": "address",
          "name": "from",
          "type": "address"
        },
        {
          "internalType": "address",
          "name": "to",
          "type": "address"
        },
        {
          "internalType": "uint256",
          "name": "tokenId",
          "type": "uint256"
        },
        {
          "internalType": "bytes",
          "name": "data",
          "type": "bytes"
        }
      ],
      "name": "safeTransferFrom",
      "outputs": [],
      "stateMutability": "nonpayable",
      "type": "function"
    },
    {
      "inputs": [
        {
          "internalType": "address",
          "name": "operator",
          "type": "address"
        },
        {
          "internalType": "bool",
          "name": "approved",
          "type": "bool"
        }
      ],
      "name": "setApprovalForAll",
      "outputs": [],
      "stateMutability": "nonpayable",
      "type": "function"
    },
    {
      "inputs": [],
      "name": "strBaseURI",
      "outputs": [
        {
          "internalType": "string",
          "name": "",
          "type": "string"
        }
      ],
      "stateMutability": "view",
      "type": "function"
    },
    {
      "inputs": [
        {
          "internalType": "bytes4",
          "name": "interfaceId",
          "type": "bytes4"
        }
      ],
      "name": "supportsInterface",
      "outputs": [
        {
          "internalType": "bool",
          "name": "",
          "type": "bool"
        }
      ],
      "stateMutability": "view",
      "type": "function"
    },
    {
      "inputs": [],
      "name": "symbol",
      "outputs": [
        {
          "internalType": "string",
          "name": "",
          "type": "string"
        }
      ],
      "stateMutability": "view",
      "type": "function"
    },
    {
      "inputs": [
        {
          "internalType": "uint256",
          "name": "tokenId",
          "type": "uint256"
        }
      ],
      "name": "tokenURI",
      "outputs": [
        {
          "internalType": "string",
          "name": "",
          "type": "string"
        }
      ],
      "stateMutability": "view",
      "type": "function"
    },
    {
      "inputs": [
        {
          "internalType": "address",
          "name": "from",
          "type": "address"
        },
        {
          "internalType": "address",
          "name": "to",
          "type": "address"
        },
        {
          "internalType": "uint256",
          "name": "tokenId",
          "type": "uint256"
        }
      ],
      "name": "transferFrom",
      "outputs": [],
      "stateMutability": "nonpayable",
      "type": "function"
    }
  ],
  "transactionHash": "0x7172d97ae38ef62ae014b08a83314f785164fa2726d66dac8c700ce729039187",
  "args": [
    "0xe1a6A10f3229BB35116648689FCeb9Dc8D53B9fB",
    "0x4Cb5EDBB95614B2b829fb3Bc6A8fc0D06F4dad46"
  ],
  "numDeployments": 3,
  "solcInputHash": "b5358f8597b0ff372d26c6a7acce17e9",
  "bytecode": "0x60806040526000600755678ac7230489e800006008556000600960006101000a81548160ff0219169083151502179055506000600960016101000a81548160ff0219169083151502179055506040518060800160405280604e815260200162003d7b604e9139600b9081620000759190620004ac565b50611388600c556000600d556105dc600e556000600f556105dc60105560006011556105dc6012556000601355348015620000af57600080fd5b5060405162003dc938038062003dc98339818101604052810190620000d59190620005fd565b6040518060400160405280601081526020017f536f6c657468656f6e447261676f6e73000000000000000000000000000000008152506040518060400160405280600281526020017f53440000000000000000000000000000000000000000000000000000000000008152508160009081620001529190620004ac565b508060019081620001649190620004ac565b50505033600960026101000a81548173ffffffffffffffffffffffffffffffffffffffff021916908373ffffffffffffffffffffffffffffffffffffffff16021790555081600a60006101000a81548173ffffffffffffffffffffffffffffffffffffffff021916908373ffffffffffffffffffffffffffffffffffffffff16021790555080601660006101000a81548173ffffffffffffffffffffffffffffffffffffffff021916908373ffffffffffffffffffffffffffffffffffffffff160217905550505062000644565b600081519050919050565b7f4e487b7100000000000000000000000000000000000000000000000000000000600052604160045260246000fd5b7f4e487b7100000000000000000000000000000000000000000000000000000000600052602260045260246000fd5b60006002820490506001821680620002b457607f821691505b602082108103620002ca57620002c96200026c565b5b50919050565b60008190508160005260206000209050919050565b60006020601f8301049050919050565b600082821b905092915050565b600060088302620003347fffffffffffffffffffffffffffffffffffffffffffffffffffffffffffffffff82620002f5565b620003408683620002f5565b95508019841693508086168417925050509392505050565b6000819050919050565b6000819050919050565b60006200038d62000387620003818462000358565b62000362565b62000358565b9050919050565b6000819050919050565b620003a9836200036c565b620003c1620003b88262000394565b84845462000302565b825550505050565b600090565b620003d8620003c9565b620003e58184846200039e565b505050565b5b818110156200040d5762000401600082620003ce565b600181019050620003eb565b5050565b601f8211156200045c576200042681620002d0565b6200043184620002e5565b8101602085101562000441578190505b620004596200045085620002e5565b830182620003ea565b50505b505050565b600082821c905092915050565b6000620004816000198460080262000461565b1980831691505092915050565b60006200049c83836200046e565b9150826002028217905092915050565b620004b78262000232565b67ffffffffffffffff811115620004d357620004d26200023d565b5b620004df82546200029b565b620004ec82828562000411565b600060209050601f8311600181146200052457600084156200050f578287015190505b6200051b85826200048e565b8655506200058b565b601f1984166200053486620002d0565b60005b828110156200055e5784890151825560018201915060208501945060208101905062000537565b868310156200057e57848901516200057a601f8916826200046e565b8355505b6001600288020188555050505b505050505050565b600080fd5b600073ffffffffffffffffffffffffffffffffffffffff82169050919050565b6000620005c58262000598565b9050919050565b620005d781620005b8565b8114620005e357600080fd5b50565b600081519050620005f781620005cc565b92915050565b6000806040838503121562000617576200061662000593565b5b60006200062785828601620005e6565b92505060206200063a85828601620005e6565b9150509250929050565b61372780620006546000396000f3fe60806040526004361061019c5760003560e01c80636352211e116100ec578063a22cb4651161008a578063c87b56dd11610064578063c87b56dd146105e1578063d63e0dc01461061e578063e2eba74a14610649578063e985e9c5146106745761019c565b8063a22cb46514610564578063ad8738681461058d578063b88d4fde146105b85761019c565b80637e0293a4116100c65780637e0293a4146104a15780637e3d5aa4146104cc57806395d89b4114610509578063a0712d68146105345761019c565b80636352211e1461041057806364f101f01461044d57806370a08231146104645761019c565b806311bb93331161015957806323b872dd1161013357806323b872dd1461035657806342842e0e1461037f5780635332fd66146103a85780635bcbb86f146103e55761019c565b806311bb9333146102c357806313966db5146102ee5780631dff40aa146103195761019c565b806301ffc9a7146101a157806306fdde03146101de578063081812fc14610209578063095ea7b3146102465780630c1f954e1461026f578063106f70f91461029a575b600080fd5b3480156101ad57600080fd5b506101c860048036038101906101c3919061280a565b6106b1565b6040516101d59190612852565b60405180910390f35b3480156101ea57600080fd5b506101f3610712565b60405161020091906128fd565b60405180910390f35b34801561021557600080fd5b50610230600480360381019061022b9190612955565b6107a4565b60405161023d91906129c3565b60405180910390f35b34801561025257600080fd5b5061026d60048036038101906102689190612a0a565b6107c0565b005b34801561027b57600080fd5b506102846107d6565b6040516102919190612852565b60405180910390f35b3480156102a657600080fd5b506102c160048036038101906102bc9190612b7f565b6107e9565b005b3480156102cf57600080fd5b506102d86108a7565b6040516102e59190612bd7565b60405180910390f35b3480156102fa57600080fd5b506103036108ad565b6040516103109190612bd7565b60405180910390f35b34801561032557600080fd5b50610340600480360381019061033b9190612955565b6108b3565b60405161034d9190612bd7565b60405180910390f35b34801561036257600080fd5b5061037d60048036038101906103789190612bf2565b6108cb565b005b34801561038b57600080fd5b506103a660048036038101906103a19190612bf2565b6109cd565b005b3480156103b457600080fd5b506103cf60048036038101906103ca9190612c45565b6109ed565b6040516103dc9190612852565b60405180910390f35b3480156103f157600080fd5b506103fa610a0d565b6040516104079190612bd7565b60405180910390f35b34801561041c57600080fd5b5061043760048036038101906104329190612955565b610a13565b60405161044491906129c3565b60405180910390f35b34801561045957600080fd5b50610462610a25565b005b34801561047057600080fd5b5061048b60048036038101906104869190612c45565b610ac0565b6040516104989190612bd7565b60405180910390f35b3480156104ad57600080fd5b506104b6610b7a565b6040516104c39190612bd7565b60405180910390f35b3480156104d857600080fd5b506104f360048036038101906104ee9190612c45565b610b80565b6040516105009190612bd7565b60405180910390f35b34801561051557600080fd5b5061051e610d38565b60405161052b91906128fd565b60405180910390f35b61054e60048036038101906105499190612955565b610dca565b60405161055b9190612bd7565b60405180910390f35b34801561057057600080fd5b5061058b60048036038101906105869190612c9e565b611653565b005b34801561059957600080fd5b506105a2611669565b6040516105af91906128fd565b60405180910390f35b3480156105c457600080fd5b506105df60048036038101906105da9190612d7f565b6116f7565b005b3480156105ed57600080fd5b5061060860048036038101906106039190612955565b611714565b60405161061591906128fd565b60405180910390f35b34801561062a57600080fd5b506106336117f7565b6040516106409190612852565b60405180910390f35b34801561065557600080fd5b5061065e61180a565b60405161066b9190612bd7565b60405180910390f35b34801561068057600080fd5b5061069b60048036038101906106969190612e02565b611810565b6040516106a89190612852565b60405180910390f35b6000634906490660e01b7bffffffffffffffffffffffffffffffffffffffffffffffffffffffff1916827bffffffffffffffffffffffffffffffffffffffffffffffffffffffff1916148061070b575061070a826118a4565b5b9050919050565b60606000805461072190612e71565b80601f016020809104026020016040519081016040528092919081815260200182805461074d90612e71565b801561079a5780601f1061076f5761010080835404028352916020019161079a565b820191906000526020600020905b81548152906001019060200180831161077d57829003601f168201915b5050505050905090565b60006107af82611986565b506107b982611a0e565b9050919050565b6107d282826107cd611a4b565b611a53565b5050565b600960019054906101000a900460ff1681565b600960029054906101000a900473ffffffffffffffffffffffffffffffffffffffff1673ffffffffffffffffffffffffffffffffffffffff163373ffffffffffffffffffffffffffffffffffffffff1614610879576040517f08c379a000000000000000000000000000000000000000000000000000000000815260040161087090612f14565b60405180910390fd5b80600b908161088891906130e0565b506001600960016101000a81548160ff02191690831515021790555050565b60115481565b60085481565b60146020528060005260406000206000915090505481565b600073ffffffffffffffffffffffffffffffffffffffff168273ffffffffffffffffffffffffffffffffffffffff160361093d5760006040517f64a0ae9200000000000000000000000000000000000000000000000000000000815260040161093491906129c3565b60405180910390fd5b6000610951838361094c611a4b565b611a65565b90508373ffffffffffffffffffffffffffffffffffffffff168173ffffffffffffffffffffffffffffffffffffffff16146109c7578382826040517f64283d7b0000000000000000000000000000000000000000000000000000000081526004016109be939291906131b2565b60405180910390fd5b50505050565b6109e8838383604051806020016040528060008152506116f7565b505050565b60156020528060005260406000206000915054906101000a900460ff1681565b60135481565b6000610a1e82611986565b9050919050565b600960029054906101000a900473ffffffffffffffffffffffffffffffffffffffff1673ffffffffffffffffffffffffffffffffffffffff163373ffffffffffffffffffffffffffffffffffffffff1614610ab5576040517f08c379a0000000000000000000000000000000000000000000000000000000008152600401610aac90612f14565b60405180910390fd5b600754600c81905550565b60008073ffffffffffffffffffffffffffffffffffffffff168273ffffffffffffffffffffffffffffffffffffffff1603610b335760006040517f89c62b64000000000000000000000000000000000000000000000000000000008152600401610b2a91906129c3565b60405180910390fd5b600360008373ffffffffffffffffffffffffffffffffffffffff1673ffffffffffffffffffffffffffffffffffffffff168152602001908152602001600020549050919050565b600f5481565b600080601660009054906101000a900473ffffffffffffffffffffffffffffffffffffffff1673ffffffffffffffffffffffffffffffffffffffff166370a08231846040518263ffffffff1660e01b8152600401610bde91906129c3565b602060405180830381865afa158015610bfb573d6000803e3d6000fd5b505050506040513d601f19601f82011682018060405250810190610c1f91906131fe565b90506216e35f81118015610c3b57506000610c3984610ac0565b145b8015610c915750601560008473ffffffffffffffffffffffffffffffffffffffff1673ffffffffffffffffffffffffffffffffffffffff16815260200190815260200160002060009054906101000a900460ff16155b15610ca0576001915050610d33565b6201869f81118015610cb457506216e36081105b8015610cc857506000610cc684610ac0565b145b8015610d1e5750601560008473ffffffffffffffffffffffffffffffffffffffff1673ffffffffffffffffffffffffffffffffffffffff16815260200190815260200160002060009054906101000a900460ff16155b15610d2d576005915050610d33565b600a9150505b919050565b606060018054610d4790612e71565b80601f0160208091040260200160405190810160405280929190818152602001828054610d7390612e71565b8015610dc05780601f10610d9557610100808354040283529160200191610dc0565b820191906000526020600020905b815481529060010190602001808311610da357829003601f168201915b5050505050905090565b600080601660009054906101000a900473ffffffffffffffffffffffffffffffffffffffff1673ffffffffffffffffffffffffffffffffffffffff166370a08231336040518263ffffffff1660e01b8152600401610e2891906129c3565b602060405180830381865afa158015610e45573d6000803e3d6000fd5b505050506040513d601f19601f82011682018060405250810190610e6991906131fe565b9050600080600a90506216e35f83118015610e8c57506000610e8a33610ac0565b145b8015610ee25750601560003373ffffffffffffffffffffffffffffffffffffffff1673ffffffffffffffffffffffffffffffffffffffff16815260200190815260200160002060009054906101000a900460ff16155b15610f9857600a600854610ef69190613289565b341015610f38576040517f08c379a0000000000000000000000000000000000000000000000000000000008152600401610f2f90613306565b60405180910390fd5b600c5460075410610f7e576040517f08c379a0000000000000000000000000000000000000000000000000000000008152600401610f7590613398565b60405180910390fd5b600a600854610f8d9190613289565b905060019150611155565b6201869f83118015610fac57506216e36083105b8015610fc057506000610fbe33610ac0565b145b80156110165750601560003373ffffffffffffffffffffffffffffffffffffffff1673ffffffffffffffffffffffffffffffffffffffff16815260200190815260200160002060009054906101000a900460ff16155b156110c857600260085461102a9190613289565b34101561106c576040517f08c379a000000000000000000000000000000000000000000000000000000000815260040161106390613306565b60405180910390fd5b600c54600754106110b2576040517f08c379a00000000000000000000000000000000000000000000000000000000081526004016110a990613398565b60405180910390fd5b60026008546110c19190613289565b9050611154565b60085434101561110d576040517f08c379a000000000000000000000000000000000000000000000000000000000815260040161110490613306565b60405180910390fd5b600c5460075410611153576040517f08c379a000000000000000000000000000000000000000000000000000000000815260040161114a90613398565b60405180910390fd5b5b5b60006064600f8361116691906133b8565b6111709190613289565b90506000818361118091906133fa565b9050600960029054906101000a900473ffffffffffffffffffffffffffffffffffffffff1673ffffffffffffffffffffffffffffffffffffffff166108fc839081150290604051600060405180830381858888f193505050501580156111ea573d6000803e3d6000fd5b50600a60009054906101000a900473ffffffffffffffffffffffffffffffffffffffff1673ffffffffffffffffffffffffffffffffffffffff166108fc829081150290604051600060405180830381858888f19350505050158015611253573d6000803e3d6000fd5b506000600760008154809291906112699061342e565b9190505590506112793382611c7f565b84156112f4576112be816040518060400160405280600681526020017f332e6a736f6e0000000000000000000000000000000000000000000000000000815250611d78565b60036014600083815260200190815260200160002081905550601360008154809291906112ea9061342e565b919050555061153c565b600088036113b757600e54600d5410611342576040517f08c379a0000000000000000000000000000000000000000000000000000000008152600401611339906134e8565b60405180910390fd5b611381816040518060400160405280600681526020017f302e6a736f6e0000000000000000000000000000000000000000000000000000815250611d78565b60006014600083815260200190815260200160002081905550600d60008154809291906113ad9061342e565b919050555061153b565b6001880361147a57601054600f5410611405576040517f08c379a00000000000000000000000000000000000000000000000000000000081526004016113fc906134e8565b60405180910390fd5b611444816040518060400160405280600681526020017f312e6a736f6e0000000000000000000000000000000000000000000000000000815250611d78565b60016014600083815260200190815260200160002081905550600f60008154809291906114709061342e565b919050555061153a565b6002880361153957601254601154106114c8576040517f08c379a00000000000000000000000000000000000000000000000000000000081526004016114bf906134e8565b60405180910390fd5b611507816040518060400160405280600681526020017f322e6a736f6e0000000000000000000000000000000000000000000000000000815250611d78565b60026014600083815260200190815260200160002081905550601160008154809291906115339061342e565b91905055505b5b5b5b601461154733610ac0565b11801561156857506000601461155c33610ac0565b6115669190613508565b145b156115e957600760008154809291906115809061342e565b9190505590506115903382611c7f565b6115cf816040518060400160405280600681526020017f332e6a736f6e0000000000000000000000000000000000000000000000000000815250611d78565b600360146000838152602001908152602001600020819055505b6001601560003373ffffffffffffffffffffffffffffffffffffffff1673ffffffffffffffffffffffffffffffffffffffff16815260200190815260200160002060006101000a81548160ff02191690831515021790555060009450809650505050505050919050565b61166561165e611a4b565b8383611dd4565b5050565b600b805461167690612e71565b80601f01602080910402602001604051908101604052809291908181526020018280546116a290612e71565b80156116ef5780601f106116c4576101008083540402835291602001916116ef565b820191906000526020600020905b8154815290600101906020018083116116d257829003601f168201915b505050505081565b6117028484846108cb565b61170e84848484611f43565b50505050565b606061171f82611986565b50600960019054906101000a900460ff161561178c5761173d6120fa565b6117468361218c565b604051602001611756919061359b565b6040516020818303038152906040526040516020016117769291906135c1565b60405160208183030381529060405290506117f2565b6117946120fa565b6117b0601460008581526020019081526020016000205461218c565b6040516020016117c0919061359b565b6040516020818303038152906040526040516020016117e09291906135c1565b60405160208183030381529060405290505b919050565b600960009054906101000a900460ff1681565b600d5481565b6000600560008473ffffffffffffffffffffffffffffffffffffffff1673ffffffffffffffffffffffffffffffffffffffff16815260200190815260200160002060008373ffffffffffffffffffffffffffffffffffffffff1673ffffffffffffffffffffffffffffffffffffffff16815260200190815260200160002060009054906101000a900460ff16905092915050565b60007f80ac58cd000000000000000000000000000000000000000000000000000000007bffffffffffffffffffffffffffffffffffffffffffffffffffffffff1916827bffffffffffffffffffffffffffffffffffffffffffffffffffffffff1916148061196f57507f5b5e139f000000000000000000000000000000000000000000000000000000007bffffffffffffffffffffffffffffffffffffffffffffffffffffffff1916827bffffffffffffffffffffffffffffffffffffffffffffffffffffffff1916145b8061197f575061197e8261225a565b5b9050919050565b600080611992836122c4565b9050600073ffffffffffffffffffffffffffffffffffffffff168173ffffffffffffffffffffffffffffffffffffffff1603611a0557826040517f7e2732890000000000000000000000000000000000000000000000000000000081526004016119fc9190612bd7565b60405180910390fd5b80915050919050565b60006004600083815260200190815260200160002060009054906101000a900473ffffffffffffffffffffffffffffffffffffffff169050919050565b600033905090565b611a608383836001612301565b505050565b600080611a71846122c4565b9050600073ffffffffffffffffffffffffffffffffffffffff168373ffffffffffffffffffffffffffffffffffffffff1614611ab357611ab28184866124c6565b5b600073ffffffffffffffffffffffffffffffffffffffff168173ffffffffffffffffffffffffffffffffffffffff1614611b4457611af5600085600080612301565b6001600360008373ffffffffffffffffffffffffffffffffffffffff1673ffffffffffffffffffffffffffffffffffffffff168152602001908152602001600020600082825403925050819055505b600073ffffffffffffffffffffffffffffffffffffffff168573ffffffffffffffffffffffffffffffffffffffff1614611bc7576001600360008773ffffffffffffffffffffffffffffffffffffffff1673ffffffffffffffffffffffffffffffffffffffff168152602001908152602001600020600082825401925050819055505b846002600086815260200190815260200160002060006101000a81548173ffffffffffffffffffffffffffffffffffffffff021916908373ffffffffffffffffffffffffffffffffffffffff160217905550838573ffffffffffffffffffffffffffffffffffffffff168273ffffffffffffffffffffffffffffffffffffffff167fddf252ad1be2c89b69c2b068fc378daa952ba7f163c4a11628f55a4df523b3ef60405160405180910390a4809150509392505050565b600073ffffffffffffffffffffffffffffffffffffffff168273ffffffffffffffffffffffffffffffffffffffff1603611cf15760006040517f64a0ae92000000000000000000000000000000000000000000000000000000008152600401611ce891906129c3565b60405180910390fd5b6000611cff83836000611a65565b9050600073ffffffffffffffffffffffffffffffffffffffff168173ffffffffffffffffffffffffffffffffffffffff1614611d735760006040517f73c6ac6e000000000000000000000000000000000000000000000000000000008152600401611d6a91906129c3565b60405180910390fd5b505050565b80600660008481526020019081526020016000209081611d9891906130e0565b507ff8e1a15aba9398e019f0b49df1a4fde98ee17ae345cb5f6b5e2c27f5033e8ce782604051611dc89190612bd7565b60405180910390a15050565b600073ffffffffffffffffffffffffffffffffffffffff168273ffffffffffffffffffffffffffffffffffffffff1603611e4557816040517f5b08ba18000000000000000000000000000000000000000000000000000000008152600401611e3c91906129c3565b60405180910390fd5b80600560008573ffffffffffffffffffffffffffffffffffffffff1673ffffffffffffffffffffffffffffffffffffffff16815260200190815260200160002060008473ffffffffffffffffffffffffffffffffffffffff1673ffffffffffffffffffffffffffffffffffffffff16815260200190815260200160002060006101000a81548160ff0219169083151502179055508173ffffffffffffffffffffffffffffffffffffffff168373ffffffffffffffffffffffffffffffffffffffff167f17307eab39ab6107e8899845ad3d59bd9653f200f220920489ca2b5937696c3183604051611f369190612852565b60405180910390a3505050565b60008373ffffffffffffffffffffffffffffffffffffffff163b11156120f4578273ffffffffffffffffffffffffffffffffffffffff1663150b7a02611f87611a4b565b8685856040518563ffffffff1660e01b8152600401611fa9949392919061363a565b6020604051808303816000875af1925050508015611fe557506040513d601f19601f82011682018060405250810190611fe2919061369b565b60015b612069573d8060008114612015576040519150601f19603f3d011682016040523d82523d6000602084013e61201a565b606091505b50600081510361206157836040517f64a0ae9200000000000000000000000000000000000000000000000000000000815260040161205891906129c3565b60405180910390fd5b805181602001fd5b63150b7a0260e01b7bffffffffffffffffffffffffffffffffffffffffffffffffffffffff1916817bffffffffffffffffffffffffffffffffffffffffffffffffffffffff1916146120f257836040517f64a0ae920000000000000000000000000000000000000000000000000000000081526004016120e991906129c3565b60405180910390fd5b505b50505050565b6060600b805461210990612e71565b80601f016020809104026020016040519081016040528092919081815260200182805461213590612e71565b80156121825780601f1061215757610100808354040283529160200191612182565b820191906000526020600020905b81548152906001019060200180831161216557829003601f168201915b5050505050905090565b60606000600161219b8461258a565b01905060008167ffffffffffffffff8111156121ba576121b9612a54565b5b6040519080825280601f01601f1916602001820160405280156121ec5781602001600182028036833780820191505090505b509050600082602001820190505b60011561224f578080600190039150507f3031323334353637383961626364656600000000000000000000000000000000600a86061a8153600a85816122435761224261322b565b5b049450600085036121fa575b819350505050919050565b60007f01ffc9a7000000000000000000000000000000000000000000000000000000007bffffffffffffffffffffffffffffffffffffffffffffffffffffffff1916827bffffffffffffffffffffffffffffffffffffffffffffffffffffffff1916149050919050565b60006002600083815260200190815260200160002060009054906101000a900473ffffffffffffffffffffffffffffffffffffffff169050919050565b808061233a5750600073ffffffffffffffffffffffffffffffffffffffff168273ffffffffffffffffffffffffffffffffffffffff1614155b1561246e57600061234a84611986565b9050600073ffffffffffffffffffffffffffffffffffffffff168373ffffffffffffffffffffffffffffffffffffffff16141580156123b557508273ffffffffffffffffffffffffffffffffffffffff168173ffffffffffffffffffffffffffffffffffffffff1614155b80156123c857506123c68184611810565b155b1561240a57826040517fa9fbf51f00000000000000000000000000000000000000000000000000000000815260040161240191906129c3565b60405180910390fd5b811561246c57838573ffffffffffffffffffffffffffffffffffffffff168273ffffffffffffffffffffffffffffffffffffffff167f8c5be1e5ebec7d5bd14f71427d1e84f3dd0314c0f7b2291e5b200ac8c7c3b92560405160405180910390a45b505b836004600085815260200190815260200160002060006101000a81548173ffffffffffffffffffffffffffffffffffffffff021916908373ffffffffffffffffffffffffffffffffffffffff16021790555050505050565b6124d18383836126dd565b61258557600073ffffffffffffffffffffffffffffffffffffffff168373ffffffffffffffffffffffffffffffffffffffff160361254657806040517f7e27328900000000000000000000000000000000000000000000000000000000815260040161253d9190612bd7565b60405180910390fd5b81816040517f177e802f00000000000000000000000000000000000000000000000000000000815260040161257c9291906136c8565b60405180910390fd5b505050565b600080600090507a184f03e93ff9f4daa797ed6e38ed64bf6a1f01000000000000000083106125e8577a184f03e93ff9f4daa797ed6e38ed64bf6a1f01000000000000000083816125de576125dd61322b565b5b0492506040810190505b6d04ee2d6d415b85acef81000000008310612625576d04ee2d6d415b85acef8100000000838161261b5761261a61322b565b5b0492506020810190505b662386f26fc10000831061265457662386f26fc10000838161264a5761264961322b565b5b0492506010810190505b6305f5e100831061267d576305f5e10083816126735761267261322b565b5b0492506008810190505b61271083106126a25761271083816126985761269761322b565b5b0492506004810190505b606483106126c557606483816126bb576126ba61322b565b5b0492506002810190505b600a83106126d4576001810190505b80915050919050565b60008073ffffffffffffffffffffffffffffffffffffffff168373ffffffffffffffffffffffffffffffffffffffff161415801561279557508273ffffffffffffffffffffffffffffffffffffffff168473ffffffffffffffffffffffffffffffffffffffff16148061275657506127558484611810565b5b8061279457508273ffffffffffffffffffffffffffffffffffffffff1661277c83611a0e565b73ffffffffffffffffffffffffffffffffffffffff16145b5b90509392505050565b6000604051905090565b600080fd5b600080fd5b60007fffffffff0000000000000000000000000000000000000000000000000000000082169050919050565b6127e7816127b2565b81146127f257600080fd5b50565b600081359050612804816127de565b92915050565b6000602082840312156128205761281f6127a8565b5b600061282e848285016127f5565b91505092915050565b60008115159050919050565b61284c81612837565b82525050565b60006020820190506128676000830184612843565b92915050565b600081519050919050565b600082825260208201905092915050565b60005b838110156128a757808201518184015260208101905061288c565b60008484015250505050565b6000601f19601f8301169050919050565b60006128cf8261286d565b6128d98185612878565b93506128e9818560208601612889565b6128f2816128b3565b840191505092915050565b6000602082019050818103600083015261291781846128c4565b905092915050565b6000819050919050565b6129328161291f565b811461293d57600080fd5b50565b60008135905061294f81612929565b92915050565b60006020828403121561296b5761296a6127a8565b5b600061297984828501612940565b91505092915050565b600073ffffffffffffffffffffffffffffffffffffffff82169050919050565b60006129ad82612982565b9050919050565b6129bd816129a2565b82525050565b60006020820190506129d860008301846129b4565b92915050565b6129e7816129a2565b81146129f257600080fd5b50565b600081359050612a04816129de565b92915050565b60008060408385031215612a2157612a206127a8565b5b6000612a2f858286016129f5565b9250506020612a4085828601612940565b9150509250929050565b600080fd5b600080fd5b7f4e487b7100000000000000000000000000000000000000000000000000000000600052604160045260246000fd5b612a8c826128b3565b810181811067ffffffffffffffff82111715612aab57612aaa612a54565b5b80604052505050565b6000612abe61279e565b9050612aca8282612a83565b919050565b600067ffffffffffffffff821115612aea57612ae9612a54565b5b612af3826128b3565b9050602081019050919050565b82818337600083830152505050565b6000612b22612b1d84612acf565b612ab4565b905082815260208101848484011115612b3e57612b3d612a4f565b5b612b49848285612b00565b509392505050565b600082601f830112612b6657612b65612a4a565b5b8135612b76848260208601612b0f565b91505092915050565b600060208284031215612b9557612b946127a8565b5b600082013567ffffffffffffffff811115612bb357612bb26127ad565b5b612bbf84828501612b51565b91505092915050565b612bd18161291f565b82525050565b6000602082019050612bec6000830184612bc8565b92915050565b600080600060608486031215612c0b57612c0a6127a8565b5b6000612c19868287016129f5565b9350506020612c2a868287016129f5565b9250506040612c3b86828701612940565b9150509250925092565b600060208284031215612c5b57612c5a6127a8565b5b6000612c69848285016129f5565b91505092915050565b612c7b81612837565b8114612c8657600080fd5b50565b600081359050612c9881612c72565b92915050565b60008060408385031215612cb557612cb46127a8565b5b6000612cc3858286016129f5565b9250506020612cd485828601612c89565b9150509250929050565b600067ffffffffffffffff821115612cf957612cf8612a54565b5b612d02826128b3565b9050602081019050919050565b6000612d22612d1d84612cde565b612ab4565b905082815260208101848484011115612d3e57612d3d612a4f565b5b612d49848285612b00565b509392505050565b600082601f830112612d6657612d65612a4a565b5b8135612d76848260208601612d0f565b91505092915050565b60008060008060808587031215612d9957612d986127a8565b5b6000612da7878288016129f5565b9450506020612db8878288016129f5565b9350506040612dc987828801612940565b925050606085013567ffffffffffffffff811115612dea57612de96127ad565b5b612df687828801612d51565b91505092959194509250565b60008060408385031215612e1957612e186127a8565b5b6000612e27858286016129f5565b9250506020612e38858286016129f5565b9150509250929050565b7f4e487b7100000000000000000000000000000000000000000000000000000000600052602260045260246000fd5b60006002820490506001821680612e8957607f821691505b602082108103612e9c57612e9b612e42565b5b50919050565b7f536f6c657468656f6e447261676f6e733a20596f7520617265206e6f74206d7960008201527f206d61737465722e000000000000000000000000000000000000000000000000602082015250565b6000612efe602883612878565b9150612f0982612ea2565b604082019050919050565b60006020820190508181036000830152612f2d81612ef1565b9050919050565b60008190508160005260206000209050919050565b60006020601f8301049050919050565b600082821b905092915050565b600060088302612f967fffffffffffffffffffffffffffffffffffffffffffffffffffffffffffffffff82612f59565b612fa08683612f59565b95508019841693508086168417925050509392505050565b6000819050919050565b6000612fdd612fd8612fd38461291f565b612fb8565b61291f565b9050919050565b6000819050919050565b612ff783612fc2565b61300b61300382612fe4565b848454612f66565b825550505050565b600090565b613020613013565b61302b818484612fee565b505050565b5b8181101561304f57613044600082613018565b600181019050613031565b5050565b601f8211156130945761306581612f34565b61306e84612f49565b8101602085101561307d578190505b61309161308985612f49565b830182613030565b50505b505050565b600082821c905092915050565b60006130b760001984600802613099565b1980831691505092915050565b60006130d083836130a6565b9150826002028217905092915050565b6130e98261286d565b67ffffffffffffffff81111561310257613101612a54565b5b61310c8254612e71565b613117828285613053565b600060209050601f83116001811461314a5760008415613138578287015190505b61314285826130c4565b8655506131aa565b601f19841661315886612f34565b60005b828110156131805784890151825560018201915060208501945060208101905061315b565b8683101561319d5784890151613199601f8916826130a6565b8355505b6001600288020188555050505b505050505050565b60006060820190506131c760008301866129b4565b6131d46020830185612bc8565b6131e160408301846129b4565b949350505050565b6000815190506131f881612929565b92915050565b600060208284031215613214576132136127a8565b5b6000613222848285016131e9565b91505092915050565b7f4e487b7100000000000000000000000000000000000000000000000000000000600052601260045260246000fd5b7f4e487b7100000000000000000000000000000000000000000000000000000000600052601160045260246000fd5b60006132948261291f565b915061329f8361291f565b9250826132af576132ae61322b565b5b828204905092915050565b7f536f6c657468656f6e447261676f6e733a205061796d656e7420746f206c6f77600082015250565b60006132f0602083612878565b91506132fb826132ba565b602082019050919050565b6000602082019050818103600083015261331f816132e3565b9050919050565b7f536f6c657468656f6e447261676f6e733a20416c6c206567677320617265206c60008201527f617965642e000000000000000000000000000000000000000000000000000000602082015250565b6000613382602583612878565b915061338d82613326565b604082019050919050565b600060208201905081810360008301526133b181613375565b9050919050565b60006133c38261291f565b91506133ce8361291f565b92508282026133dc8161291f565b915082820484148315176133f3576133f261325a565b5b5092915050565b60006134058261291f565b91506134108361291f565b92508282039050818111156134285761342761325a565b5b92915050565b60006134398261291f565b91507fffffffffffffffffffffffffffffffffffffffffffffffffffffffffffffffff820361346b5761346a61325a565b5b600182019050919050565b7f536f6c657468656f6e447261676f6e733a20416c6c204f7267616e696320617260008201527f65206c617965642e000000000000000000000000000000000000000000000000602082015250565b60006134d2602883612878565b91506134dd82613476565b604082019050919050565b60006020820190508181036000830152613501816134c5565b9050919050565b60006135138261291f565b915061351e8361291f565b92508261352e5761352d61322b565b5b828206905092915050565b600081905092915050565b600061354f8261286d565b6135598185613539565b9350613569818560208601612889565b80840191505092915050565b7f2e6a736f6e000000000000000000000000000000000000000000000000000000815250565b60006135a78284613544565b91506135b282613575565b60058201915081905092915050565b60006135cd8285613544565b91506135d98284613544565b91508190509392505050565b600081519050919050565b600082825260208201905092915050565b600061360c826135e5565b61361681856135f0565b9350613626818560208601612889565b61362f816128b3565b840191505092915050565b600060808201905061364f60008301876129b4565b61365c60208301866129b4565b6136696040830185612bc8565b818103606083015261367b8184613601565b905095945050505050565b600081519050613695816127de565b92915050565b6000602082840312156136b1576136b06127a8565b5b60006136bf84828501613686565b91505092915050565b60006040820190506136dd60008301856129b4565b6136ea6020830184612bc8565b939250505056fea264697066735822122024d77aa82a8addb174296d743fd6c5df771596b28868288c3fb6e80d770c7cc464736f6c6343000814003368747470733a2f2f7261772e67697468756275736572636f6e74656e742e636f6d2f536f6c657468656f6e2f536f6c657468656f6e5f4e46542f6d61696e2f646174612f6a736f6e2f656767732f",
  "devdoc": {
    "errors": {
      "ERC721IncorrectOwner(address,uint256,address)": [
        {
          "details": "Indicates an error related to the ownership over a particular token. Used in transfers.",
          "params": {
            "owner": "Address of the current owner of a token.",
            "sender": "Address whose tokens are being transferred.",
            "tokenId": "Identifier number of a token."
          }
        }
      ],
      "ERC721InsufficientApproval(address,uint256)": [
        {
          "details": "Indicates a failure with the `operator`s approval. Used in transfers.",
          "params": {
            "operator": "Address that may be allowed to operate on tokens without being their owner.",
            "tokenId": "Identifier number of a token."
          }
        }
      ],
      "ERC721InvalidApprover(address)": [
        {
          "details": "Indicates a failure with the `approver` of a token to be approved. Used in approvals.",
          "params": {
            "approver": "Address initiating an approval operation."
          }
        }
      ],
      "ERC721InvalidOperator(address)": [
        {
          "details": "Indicates a failure with the `operator` to be approved. Used in approvals.",
          "params": {
            "operator": "Address that may be allowed to operate on tokens without being their owner."
          }
        }
      ],
      "ERC721InvalidOwner(address)": [
        {
          "details": "Indicates that an address can't be an owner. For example, `address(0)` is a forbidden owner in EIP-20. Used in balance queries.",
          "params": {
            "owner": "Address of the current owner of a token."
          }
        }
      ],
      "ERC721InvalidReceiver(address)": [
        {
          "details": "Indicates a failure with the token `receiver`. Used in transfers.",
          "params": {
            "receiver": "Address to which tokens are being transferred."
          }
        }
      ],
      "ERC721InvalidSender(address)": [
        {
          "details": "Indicates a failure with the token `sender`. Used in transfers.",
          "params": {
            "sender": "Address whose tokens are being transferred."
          }
        }
      ],
      "ERC721NonexistentToken(uint256)": [
        {
          "details": "Indicates a `tokenId` whose `owner` is the zero address.",
          "params": {
            "tokenId": "Identifier number of a token."
          }
        }
      ]
    },
    "events": {
      "Approval(address,address,uint256)": {
        "details": "Emitted when `owner` enables `approved` to manage the `tokenId` token."
      },
      "ApprovalForAll(address,address,bool)": {
        "details": "Emitted when `owner` enables or disables (`approved`) `operator` to manage all of its assets."
      },
      "BatchMetadataUpdate(uint256,uint256)": {
        "details": "This event emits when the metadata of a range of tokens is changed. So that the third-party platforms such as NFT market could timely update the images and related attributes of the NFTs."
      },
      "MetadataUpdate(uint256)": {
        "details": "This event emits when the metadata of a token is changed. So that the third-party platforms such as NFT market could timely update the images and related attributes of the NFT."
      },
      "Transfer(address,address,uint256)": {
        "details": "Emitted when `tokenId` token is transferred from `from` to `to`."
      }
    },
    "kind": "dev",
    "methods": {
      "approve(address,uint256)": {
        "details": "See {IERC721-approve}."
      },
      "balanceOf(address)": {
        "details": "See {IERC721-balanceOf}."
      },
      "getApproved(uint256)": {
        "details": "See {IERC721-getApproved}."
      },
      "isApprovedForAll(address,address)": {
        "details": "See {IERC721-isApprovedForAll}."
      },
      "name()": {
        "details": "See {IERC721Metadata-name}."
      },
      "ownerOf(uint256)": {
        "details": "See {IERC721-ownerOf}."
      },
      "safeTransferFrom(address,address,uint256)": {
        "details": "See {IERC721-safeTransferFrom}."
      },
      "safeTransferFrom(address,address,uint256,bytes)": {
        "details": "See {IERC721-safeTransferFrom}."
      },
      "setApprovalForAll(address,bool)": {
        "details": "See {IERC721-setApprovalForAll}."
      },
      "supportsInterface(bytes4)": {
        "details": "See {IERC165-supportsInterface}"
      },
      "symbol()": {
        "details": "See {IERC721Metadata-symbol}."
      },
      "tokenURI(uint256)": {
        "details": "See {IERC721Metadata-tokenURI}."
      },
      "transferFrom(address,address,uint256)": {
        "details": "See {IERC721-transferFrom}."
      }
    },
    "version": 1
  },
  "userdoc": {
    "kind": "user",
    "methods": {},
    "version": 1
  },
  "storageLayout": {
    "storage": [
      {
        "astId": 279,
        "contract": "contracts/SoletheonDragons.sol:SoletheonDragons",
        "label": "_name",
        "offset": 0,
        "slot": "0",
        "type": "t_string_storage"
      },
      {
        "astId": 281,
        "contract": "contracts/SoletheonDragons.sol:SoletheonDragons",
        "label": "_symbol",
        "offset": 0,
        "slot": "1",
        "type": "t_string_storage"
      },
      {
        "astId": 285,
        "contract": "contracts/SoletheonDragons.sol:SoletheonDragons",
        "label": "_owners",
        "offset": 0,
        "slot": "2",
        "type": "t_mapping(t_uint256,t_address)"
      },
      {
        "astId": 289,
        "contract": "contracts/SoletheonDragons.sol:SoletheonDragons",
        "label": "_balances",
        "offset": 0,
        "slot": "3",
        "type": "t_mapping(t_address,t_uint256)"
      },
      {
        "astId": 293,
        "contract": "contracts/SoletheonDragons.sol:SoletheonDragons",
        "label": "_tokenApprovals",
        "offset": 0,
        "slot": "4",
        "type": "t_mapping(t_uint256,t_address)"
      },
      {
        "astId": 299,
        "contract": "contracts/SoletheonDragons.sol:SoletheonDragons",
        "label": "_operatorApprovals",
        "offset": 0,
        "slot": "5",
        "type": "t_mapping(t_address,t_mapping(t_address,t_bool))"
      },
      {
        "astId": 1418,
        "contract": "contracts/SoletheonDragons.sol:SoletheonDragons",
        "label": "_tokenURIs",
        "offset": 0,
        "slot": "6",
        "type": "t_mapping(t_uint256,t_string_storage)"
      },
      {
        "astId": 3034,
        "contract": "contracts/SoletheonDragons.sol:SoletheonDragons",
        "label": "_nextID",
        "offset": 0,
        "slot": "7",
        "type": "t_uint256"
      },
      {
        "astId": 3037,
        "contract": "contracts/SoletheonDragons.sol:SoletheonDragons",
        "label": "mintFee",
        "offset": 0,
        "slot": "8",
        "type": "t_uint256"
      },
      {
        "astId": 3040,
        "contract": "contracts/SoletheonDragons.sol:SoletheonDragons",
        "label": "bPintOpen",
        "offset": 0,
        "slot": "9",
        "type": "t_bool"
      },
      {
        "astId": 3043,
        "contract": "contracts/SoletheonDragons.sol:SoletheonDragons",
        "label": "bRevealed",
        "offset": 1,
        "slot": "9",
        "type": "t_bool"
      },
      {
        "astId": 3045,
        "contract": "contracts/SoletheonDragons.sol:SoletheonDragons",
        "label": "addrDev",
        "offset": 2,
        "slot": "9",
        "type": "t_address_payable"
      },
      {
        "astId": 3047,
        "contract": "contracts/SoletheonDragons.sol:SoletheonDragons",
        "label": "addrMarketing",
        "offset": 0,
        "slot": "10",
        "type": "t_address_payable"
      },
      {
        "astId": 3050,
        "contract": "contracts/SoletheonDragons.sol:SoletheonDragons",
        "label": "strBaseURI",
        "offset": 0,
        "slot": "11",
        "type": "t_string_storage"
      },
      {
        "astId": 3053,
        "contract": "contracts/SoletheonDragons.sol:SoletheonDragons",
        "label": "maxSupply",
        "offset": 0,
        "slot": "12",
        "type": "t_uint256"
      },
      {
        "astId": 3056,
        "contract": "contracts/SoletheonDragons.sol:SoletheonDragons",
        "label": "iOrganicCount",
        "offset": 0,
        "slot": "13",
        "type": "t_uint256"
      },
      {
        "astId": 3059,
        "contract": "contracts/SoletheonDragons.sol:SoletheonDragons",
        "label": "iOrganicMax",
        "offset": 0,
        "slot": "14",
        "type": "t_uint256"
      },
      {
        "astId": 3062,
        "contract": "contracts/SoletheonDragons.sol:SoletheonDragons",
        "label": "iMechanicalCount",
        "offset": 0,
        "slot": "15",
        "type": "t_uint256"
      },
      {
        "astId": 3065,
        "contract": "contracts/SoletheonDragons.sol:SoletheonDragons",
        "label": "iMechanicalMax",
        "offset": 0,
        "slot": "16",
        "type": "t_uint256"
      },
      {
        "astId": 3068,
        "contract": "contracts/SoletheonDragons.sol:SoletheonDragons",
        "label": "iCyborgCount",
        "offset": 0,
        "slot": "17",
        "type": "t_uint256"
      },
      {
        "astId": 3071,
        "contract": "contracts/SoletheonDragons.sol:SoletheonDragons",
        "label": "iCyborgMax",
        "offset": 0,
        "slot": "18",
        "type": "t_uint256"
      },
      {
        "astId": 3074,
        "contract": "contracts/SoletheonDragons.sol:SoletheonDragons",
        "label": "iLegendaryCount",
        "offset": 0,
        "slot": "19",
        "type": "t_uint256"
      },
      {
        "astId": 3078,
        "contract": "contracts/SoletheonDragons.sol:SoletheonDragons",
        "label": "mapIDToType",
        "offset": 0,
        "slot": "20",
        "type": "t_mapping(t_uint256,t_uint256)"
      },
      {
        "astId": 3082,
        "contract": "contracts/SoletheonDragons.sol:SoletheonDragons",
        "label": "mapClaimedAirdrop",
        "offset": 0,
        "slot": "21",
        "type": "t_mapping(t_address,t_bool)"
      },
      {
        "astId": 3085,
        "contract": "contracts/SoletheonDragons.sol:SoletheonDragons",
        "label": "ercSolen",
        "offset": 0,
        "slot": "22",
        "type": "t_contract(IERC20)246"
      }
    ],
    "types": {
      "t_address": {
        "encoding": "inplace",
        "label": "address",
        "numberOfBytes": "20"
      },
      "t_address_payable": {
        "encoding": "inplace",
        "label": "address payable",
        "numberOfBytes": "20"
      },
      "t_bool": {
        "encoding": "inplace",
        "label": "bool",
        "numberOfBytes": "1"
      },
      "t_contract(IERC20)246": {
        "encoding": "inplace",
        "label": "contract IERC20",
        "numberOfBytes": "20"
      },
      "t_mapping(t_address,t_bool)": {
        "encoding": "mapping",
        "key": "t_address",
        "label": "mapping(address => bool)",
        "numberOfBytes": "32",
        "value": "t_bool"
      },
      "t_mapping(t_address,t_mapping(t_address,t_bool))": {
        "encoding": "mapping",
        "key": "t_address",
        "label": "mapping(address => mapping(address => bool))",
        "numberOfBytes": "32",
        "value": "t_mapping(t_address,t_bool)"
      },
      "t_mapping(t_address,t_uint256)": {
        "encoding": "mapping",
        "key": "t_address",
        "label": "mapping(address => uint256)",
        "numberOfBytes": "32",
        "value": "t_uint256"
      },
      "t_mapping(t_uint256,t_address)": {
        "encoding": "mapping",
        "key": "t_uint256",
        "label": "mapping(uint256 => address)",
        "numberOfBytes": "32",
        "value": "t_address"
      },
      "t_mapping(t_uint256,t_string_storage)": {
        "encoding": "mapping",
        "key": "t_uint256",
        "label": "mapping(uint256 => string)",
        "numberOfBytes": "32",
        "value": "t_string_storage"
      },
      "t_mapping(t_uint256,t_uint256)": {
        "encoding": "mapping",
        "key": "t_uint256",
        "label": "mapping(uint256 => uint256)",
        "numberOfBytes": "32",
        "value": "t_uint256"
      },
      "t_string_storage": {
        "encoding": "bytes",
        "label": "string",
        "numberOfBytes": "32"
      },
      "t_uint256": {
        "encoding": "inplace",
        "label": "uint256",
        "numberOfBytes": "32"
      }
    }
  }
}